:200000000C941E040C9430040C9430040C945C040C94ED120C9430040C9430040C9430045B
:200020000C9430040C9430040C9430040C94C91C0C9430040C9430040C9430040C9430046F
:200040000C945C1C0C9430040C945A200C94B8200C9430040C9430040C9430040C943004D2
:200060000C9430040C943004AC31B231B531B831BD31C531CD31403240324032D531D83102
:20008000E131EA31403240324032403240324032F231FC310832123215321E3227322D326A
:2000A000AB09AF11AF11B509C209CF09DC09AF11E009AF11EE09AF11F809020A2D0AAF11A2
:2000C000AF11AF110C0A170A220A79108A10A9108A10AD10C010B310B910D610DC10EB10E1
:2000E000FE10171121112C1136110F21122117211A211D2120212321262129212C212F214D
:200100003B213B213B213B213B213B213B213B21352132213821084AD73B3BCE016E84BCE1
:20012000BFFDC12F3D6C74319ABD56833DDA3D00C77F11BED9E4BB4C3E916BAAAABE00001C
:2001400000803F05A84CCDB2D44EB93836A9020C50B9918688083CA6AAAA2ABE000000801A
:200160003F000D0A4772626C20302E3969205B27242720666F722068656C705D0D0A000DE4
:200180000A003D00244E005D0D0A005B302E39692E32303135303632303A005D0D0A005B10
:2001A000544C4F3A005D0D0A002C005B4739323A005D0D0A002C003A003330003238005B2D
:2001C00047005D0D0A00205300204600205400204D3800204D3900204D3500204D34002069
:2001E0004D3300204D3200204D3100204D30002047393400204739330020473931002047C6
:200200003930002047323000204732310020473139002047313800204731370020470047C4
:2002200033382E00473830004733004732004731004730005B002424202876696577204787
:2002400072626C2073657474696E6773290D0A2423202876696577202320706172616D656A
:2002600074657273290D0A244720287669657720706172736572207374617465290D0A24C0
:2002800049202876696577206275696C6420696E666F290D0A244E2028766965772073745A
:2002A000617274757020626C6F636B73290D0A24783D76616C75652028736176652047726E
:2002C000626C2073657474696E67290D0A244E783D6C696E65202873617665207374617252
:2002E00074757020626C6F636B290D0A24432028636865636B2067636F6465206D6F6465A6
:20030000290D0A245820286B696C6C20616C61726D206C6F636B290D0A2448202872756EEE
:2003200020686F6D696E67206379636C65290D0A7E20286379636C65207374617274290D51
:200340000A2120286665656420686F6C64290D0A3F202863757272656E74207374617475B4
:2003600073290D0A6374726C2D7820287265736574204772626C290D0A005D0D0A005265F3
:2003800073746F72696E672064656661756C74730050676D20456E6400436865636B204442
:2003A0006F6F720044697361626C656400456E61626C65640043617574696F6E3A20556E3A
:2003C0006C6F636B656400272448277C2724582720746F20756E6C6F636B005265736574F9
:2003E00020746F20636F6E74696E7565005B006F6B0D0A000D0A00486F6D696E67206661C9
:20040000696C0050726F6265206661696C0041626F727420647572696E67206379636C6582
:2004200000536F6674206C696D69740048617264206C696D697400414C41524D3A20003E1E
:200440000D0A002C4C696D3A002C52583A002C4275663A002C002C57506F733A002C002CF7
:200460004D506F733A003C446F6F72003C436865636B003C416C61726D003C486F6D6500EB
:200480003C486F6C64003C52756E003C49646C6500290D0A00206D61782074726176656C1A
:2004A0002C206D6D0020616363656C2C206D6D2F7365635E3200206D617820726174652C80
:2004C000206D6D2F6D696E002C20737465702F6D6D007A00790078002028003D002400206A
:2004E00028686F6D696E672070756C6C2D6F66662C206D6D290D0A002028686F6D696E67DD
:20050000206465626F756E63652C206D736563290D0A2432373D002028686F6D696E67208E
:200520007365656B2C206D6D2F6D696E290D0A2432363D002028686F6D696E672066656557
:20054000642C206D6D2F6D696E290D0A2432353D00290D0A2432343D002028686F6D696E2C
:20056000672064697220696E76657274206D61736B3A002028686F6D696E67206379636C62
:20058000652C20626F6F6C290D0A2432333D00202868617264206C696D6974732C20626F42
:2005A0006F6C290D0A2432323D002028736F6674206C696D6974732C20626F6F6C290D0A6D
:2005C0002432313D0020287265706F727420696E636865732C20626F6F6C290D0A2432301B
:2005E0003D00202861726320746F6C6572616E63652C206D6D290D0A2431333D0020286A86
:20060000756E6374696F6E20646576696174696F6E2C206D6D290D0A2431323D00290D0A8D
:200620002431313D002028737461747573207265706F7274206D61736B3A00202870726FB0
:2006400062652070696E20696E766572742C20626F6F6C290D0A2431303D0020286C696D30
:2006600069742070696E7320696E766572742C20626F6F6C290D0A24363D002028737465A8
:200680007020656E61626C6520696E766572742C20626F6F6C290D0A24353D00290D0A2479
:2006A000343D00202864697220706F727420696E76657274206D61736B3A00290D0A243308
:2006C0003D0020287374657020706F727420696E76657274206D61736B3A002028737465A2
:2006E000702069646C652064656C61792C206D736563290D0A24323D0020287374657020B2
:2007000070756C73652C2075736563290D0A24313D0024303D005D0D0A003A002C005B50CC
:2007200052423A000D0A00496E76616C69642067636F64652049443A00556E646566696E3B
:2007400065642066656564207261746500556E737570706F7274656420636F6D6D616E64A8
:20076000004D6F64616C2067726F75702076696F6C6174696F6E004C696E65206F766572E6
:20078000666C6F7700486F6D696E67206E6F7420656E61626C656400416C61726D206C6FFB
:2007A000636B004E6F742069646C6500454550524F4D2072656164206661696C2E20557326
:2007C000696E672064656661756C74730056616C7565203C20332075736563005365747447
:2007E000696E672064697361626C65640056616C7565203C203000496E76616C6964207360
:20080000746174656D656E7400426164206E756D62657220666F726D617400457870656328
:2008200074656420636F6D6D616E64206C6574746572006572726F723A20000011241FBE36
:20084000CFEFD8E0DEBFCDBF26E0A0E0B1E001C01D92AB3CB207E1F70E94552D0C94213CD9
:200860000C940000EBE6F0E08081897E8083E8E6F0E080818E7F8083089584B1897E84B967
:2008800085B1866185B98091220683FF0BC080916B00866180936B00809168008160809329
:2008A000680008950C943204F999FECF92BD81BD81E08FBB80B508951F920F920FB60F923C
:2008C00011242F933F934F935F936F937F938F939F93AF93BF93EF93FF938091340681306F
:2008E00071F08091370681110AC00E94752C9FB7F894809137068360809337069FBFFF9159
:20090000EF91BF91AF919F918F917F916F915F914F913F912F910F900FBE0F901F901895A0
:2009200093B196718091220686FD02C086E19827992349F091FB882780F992FD82609071AD
:2009400019F08460089580E008952F923F924F925F926F927F928F929F92AF92BF92CF9255
:20096000DF92EF92FF920F931F93CF93DF93CDB7DEB7A1970FB6F894DEBF0FBECDBF909113
:200980003306911120C28A8B25EE35E0398B288BAE01435F5F4F5A01490100E010E0C12C85
:2009A000D12C76012CE0222E90E0998F888F802F202F002321F0013021F090E103C094E09C
:2009C00001C098E0223019F4D5019C9302C0F5012082288D398D02C0359527958A95E2F765
:2009E00020FF1BC020E030E040EC5FEBD40194966D917D918D919C9197970E94AB3A362E08
:200A0000472E582E692EA70196010E94493887FD04C0C32CD42CE52CF62C0F5F1F4FB4E008
:200A20008B0E911CEFEFAE1ABE0A0330110509F0BECF209028063090290640902A06509086
:200A40002B0694E0B92E01E0AA24A39468E376E0CE0101960E94D21280912306282F30E0F6
:200A60003B8F2A8FFE01319643E356E05F8B4E8B5D8F4C8FDE011D963D0180E090E0912CEA
:200A800010E0B701A6017058288D398D082E02C0359527950A94E2F720FF24C09394AC8D6C
:200AA000BD8D15961D921D921D921C9218972A8D3B8D082E02C0359527950A94E2F720FF44
:200AC00003C0002319F007C0002329F0C082D182E282F38204C04083518362837383D301AC
:200AE0002C91122B0196BFEF6B1A7B0A34962C8D3D8D2C5F3F4F3D8F2C8F8330910521F660
:200B0000692D70E080E090E00E94FB380E944A3B9B01AC01C201B1010E94AB3A6B017C01F5
:200B2000109344060E946A2620E0B701A601CE0101960E9433280E9448130E94FF1E0023F5
:200B4000E9F00E949004FE013D9620E030E090E06191412F462359F0AC01022E02C0559597
:200B600047950A94E2F740FF02C0609516232F5F3F4F2330310561F7109344060E9448130C
:200B8000809136068473C9F080913606807329F00E94752C0E94DF2216C101110FC10E94BE
:200BA00090043A898323A1F79FB7F894809136068B7F809336069FBF04C0812F8C7109F050
:200BC000BECF0E949D1C0E94D52680912C0690912D060E946A2C0A25C9F020E030E040EA9F
:200BE00050E460912E0670912F0680913006909131060E94AB3A6B017C01209024063090BD
:200C00002506409026065090270610C0C0902E06D0902F06E0903006F0903106209028067C
:200C20003090290640902A0650902B06BA94B1100DCF20902306312C80902E0690902F06FA
:200C4000A0903006B0903106D501C401B0588A8B9B8BAC8BBD8B00E010E082E0482E512C35
:200C6000612C712C888D998D002E02C0959587950A94E2F780FF8EC0C101002E02C09595B9
:200C800087950A94E2F7A889B98980FF11C094962D913D914D915C919797C501B4010E9432
:200CA0005437E889F989208131814281538108C02D913D914D915C916A897B898C899D897B
:200CC0000E94AB3A0E94783A6B017C01011121C080913C0690913D06A0913E06B0913F06AB
:200CE000209138063091390640913A0650913B06BC01CD01621B730B840B950BA3019201E6
:200D00000E94E23BD701C601821B930BA40BB50B22C00130B9F5209138063091390640914A
:200D20003A0650913B0680913C0690913D06A0913E06B0913F06280F391F4A1F5B1FCA0162
:200D4000B901A30192010E94E23BDA01C9018C199D09AE09BF098093380690933906A0938E
:200D60003A06B0933B06D701C601820F931FA41FB51F80933C0690933D06A0933E06B093C1
:200D80003F0608C0AE89BF891596CD92DD92ED92FC9218970F5F1F4FEE89FF893496FF8B63
:200DA000EE8B288939892C5F3F4F398B288B0330110509F057CF0E946A2605C0809136060B
:200DC00082FFF2CEE5CEA1960FB6F894DEBF0FBECDBFDF91CF911F910F91FF90EF90DF9004
:200DE000CF90BF90AF909F908F907F906F905F904F903F902F9008959F92AF92BF92CF928D
:200E0000DF92EF92FF920F931F93CF93DF935B018A017C01E40EF51EEC01912C6B01C81AC6
:200E2000D90AC6018C0F9D1FCE15DF0589F00E945404911008C0292D990C330B232F221F42
:200E40002227221F01C021E0982E920E8993E9CFC501800F911F0E94540421E030E098164E
:200E600011F020E030E0C901DF91CF911F910F91FF90EF90DF90CF90BF90AF909F90089541
:200E8000F894F999FECF92BD81BD81E08FBB80B58627482F082E000C550B262F30E0242388
:200EA0003523232B39F06F3F19F060BD84E006C084E104C0882321F060BD84E28FBBF99A20
:200EC000789408959F92AF92BF92CF92DF92EF92FF920F931F93CF93DF935C018A017B0136
:200EE000E40EF51EEB01912C6C01C61AD70ACE018C0D9D1DCE15DF0589F0911008C0292DF5
:200F0000990C330B232F221F2227221F01C021E06991922E960E0E944007E9CF692DC501B4
:200F2000800F911FDF91CF911F910F91FF90EF90DF90CF90BF90AF909F900C9440074398F7
:200F400008952F923F924F925F926F927F928F929F92AF92BF92CF92DF92EF92FF920F9314
:200F60001F93CF93DF93CDB7DEB7E5970FB6F894DEBF0FBECDBF89E3E3E5F6E0DF011D9276
:200F80008A95E9F78AE0ECE8F6E0A4E5B6E001900D928A95E1F71D8E212C312CA12CB12CF9
:200FA00019A200E01E8E44244394512C37E0632E772473948D8DE82FF0E0EB56FA4F908049
:200FC000992009F46DC29FEB990D9A3110F00C94A1118F5F8D8FBE01675E7F4FCE014D96D1
:200FE0000E94A12C882311F40C94A311C98CDA8CEB8CFC8CC701B6010E948E3B0E94CC3834
:20100000162F70E080E090E00E94FD389B01AC01C701B6010E94533720E030E048EC52E426
:201020000E94AB3A0E94183B0E94CC38B7E49B1629F0EDE49E1609F435C17CC1183209F42D
:2010400006C1E8F4143160F4113108F0ABC0143009F44BC008F461C01A30D9F10C94AF11D2
:201060001C31B9F128F4163108F4CBC00C94AF111E3179F1163209F450C00C94AF111D3371
:2010800009F4DFC0A8F4153309F444C040F41B3209F4C0C0113309F4BDC00C94AF111C3364
:2010A00010F00C94AF11165310935A0689E0D2C01C3540F41A3508F084C0103509F46EC0E9
:2010C0000C94AF111C3529F01F3508F491C00C94AF116115710511F00C94C111FE8DFF2339
:2010E00011F40C94CE110C94A511709253060AC01F3150F41A3009F0B1C021E02E8F82E089
:201100008093530680E0A6C0153311F00C94E611F1E0FE8F60925306F5CF9E8D91110C94E3
:20112000A511A2E0AE8F123089F028F4112359F0113081F08EC0163281F0103579F113303B
:2011400009F087C007C01092540683C0BE8DB09354067FC0109354067CC06E317105A9F03B
:2011600048F46431710511F00C94AF11E4E0E093540612C06832710561F06233710511F0F7
:201180000C94AF116092540607C0F5E0F093540603C026E02093540681E074C038E03093E4
:2011A000540657C0123129F0133139F01092580602C07092580682E04DC082E08093580691
:2011C00049C06115710549F41A3519F41092570602C07092570683E055C06A30710511F0D8
:2011E0000C94AF111A3511F40C94AF1184E04AC01D3519F47092550602C01092550685E08D
:2012000029C0143119F47092560602C01092560686E020C08E8D81110C94A511113331F4C3
:201220001092590688E093E09E8F2CC06A30710511F00C94AF117092590688E0A3E0AE8FBF
:2012400021C0672B11F00C94AF118AE01BC087E001C081E0672BB1F00C94CC111C3111F0EE
:201260000C94F61131E03E8F6115710511F40C94E4116A30710511F00C94AF1194E090935B
:20128000530680E0F20102C0EE0FFF1F8A95E2F7CF019F012A213B21232B09F448C085E1FD
:2012A0000C941412672B11F00C94CC11163018F4133058F017C0183010F40C94AF111A30AE
:2012C00000F11E3159F00C94AF11123039F01E3129F0111120C070925B061DC082E080939B
:2012E0005B0619C0143029F0153039F070925D0606C082E080935D0602C010925D068CE0B3
:201300000BC0193021F082E080935C0602C010925C068DE001C08BE0920102C0220F331F9A
:201320008A95E2F7C901950128233923B5CFA82AB92A40CE892D990C990BAA0BBB0BFC01F0
:20134000E654F109E531F10510F00C94AF11E05BFF4F0C94013CC0925E06D0925F06E09298
:201360006006F092610680E079C0C0926206D0926306E0926406F092650639A1316039A3F0
:2013800081E06CC0C0926606D0926706E0926806F092690689A1826089A382E05FC0C09257
:2013A0006A06D0926B06E0926C06F0926D0699A1946099A383E052C010936E0684E04EC0A9
:2013C000C701B6010E94C53860936F0670937006809371069093720685E040C0C0927306B9
:2013E000D0927406E0927506F092760686E036C0C0927706D0927806E0927906F0927A0628
:2014000087E02CC0C0927B06D0927C06E0927D06F0927E0688E022C0C0928006D0928106BC
:20142000E0928206F092830601608AE017C0C0928406D0928506E0928606F09287060260CD
:201440008BE00CC0C0928806D0928906E0928A06F0928B0604608CE001C089E04201082EFC
:2014600002C0880C991C0A94E2F7940122213321232B09F06CC7A1E6B3E002C0B595A795E2
:201480008A95E2F7A0FF09C020E030E0A901C701B6010E94493887FD5CC7282839288ACDE1
:2014A000002329F0BE8DB11102C0E2E0EE8F25FE0EC080916F0690917006A0917106B091EB
:2014C000720680389649A849B1050CF044C780915506813031F42E8D2230A1F520FE45C740
:2014E00031C080918D0681112DC020FE1BC080915606813039F523E333E34BEC51E460911A
:201500005E0670915F0680916006909161060E94AB3A60935E0670935F0680936006909320
:20152000610610C080919A0690919B06A0919C06B0919D0680935E0690935F06A0936006B2
:20154000B093610630FC10C08091960690919706A0919806B091990680937B0690937C0692
:20156000A0937D06B0937E0680915306813031F426FC02C08CE158C7E89426F88091580635
:20158000882371F0813031F431E03DA718A682E08FA30BC01DA692E098A7A1E0AFA305C04B
:2015A000B2E0BDA7E1E0E8A71FA280915606813021F0FE8DF330B1F52EC093E5C92E96E0CE
:2015C000D92EE12CF12C802E912CC4010E2C02C0959587950A94E2F780FF12C023E333E384
:2015E0004BEC51E4D6019D966D917D918D919C91D0970E94AB3AF60165A776A787A790ABA7
:20160000FFEFEF1AFF0A24E0C20ED11C33E0E316F104D9F6CECF80915906813019F404303A
:2016200009F09BC68CE0EFEAF6E0DE011D9601900D928A95E1F7B1FC08C0109153061230CB
:20164000B9F0183009F4B4C01FC180915A06873010F08DE1E9C690919206891771F3BE0187
:20166000635F7F4F0E941F1F882309F488C6E5CF011102C08AE1D8C6C10180759927892B48
:2016800009F478CF609173067091740680917506909176060E948E3B0E94CC386730C8F692
:2016A00080916E06843129F0823009F058C627FC56C68FEA2822662319F061506F8F03C008
:2016C00090915A069F8FBE016F5F7F4F8F8D0E941F1F882309F453C610916E064090C70691
:2016E0005090C8066090C9067090CA06B3E5AB2EB6E0BB2EDE0111967D018CE8882E86E029
:20170000982EC12CD12CE02FF0E0FEA3EDA38DA19EA10C2C02C0959587950A94E2F780FF66
:2017200035C0143149F5D4019F962D913D914D915C91D29757966D917D918D919C915A9732
:201740000E945337F50125A536A547A550A90E945337D7016D937D938D939C931397B2E03E
:20176000CB1214C0A30192010E945337F70160837183828393830AC0F50185A596A5A7A5FA
:20178000B0A9F70180839183A283B383FFEFCF1ADF0A24E0A20EB11C34E0E30EF11C84E0CF
:2017A000880E911C93E0C916D10409F0B0CF21C1002309F45FCF4090C7065090C8066090DC
:2017C000C9067090CA06FCE8AF2EF6E0BF2E4E01ADE08A0E911CA3E5EA2EA6E0FA2EC12C8A
:2017E000D12CE02FF0E0F8A3EF8F8F8D98A10C2C02C0959587950A94E2F780FF29C0D401AB
:201800002D913D914D915C91F5016789708D818D928D0E945337D7019D962D913D914D91C0
:201820005C91D0970E945337F70165A776A787A790ABF2E0CF1216C0A30192010E945337B2
:20184000D7019D966D937D938D939C93D0970AC0F50187A590A9A1A9B2A9F70185A796A78C
:20186000A7A7B0ABFFEFCF1ADF0A24E0A20EB11C34E0830E911C84E0E80EF11C93E0C91673
:20188000D10409F0B2CFB4C0AE8DA33009F48BC0002309F4A3C0B0915706BF8F4090C70623
:2018A0005090C8066090C9067090CA067CE8A72E76E0B72EE3E5EE2EE6E0FE2E4E01EDE085
:2018C0008E0E911CC12CD12C202F30E03EA32DA38DA19EA10C2C02C0959587950A94E2F7A1
:2018E00080FD0BC0F5018789908DA18DB28DF70185A796A7A7A7B0AB44C0173009F441C0BD
:20190000FF8DF1112BC0D5019F962D913D914D915C91D297F40160817181828193810E9402
:201920005437D7019D962D913D914D915C91D0970E945437F70165A776A787A790ABF2E0CA
:20194000CF121FC0A30192010E945437D7019D966D937D938D939C93D09713C0F501278919
:20196000308D418D528DD7019D966D917D918D919C91D0970E945437F70165A776A787A7B8
:2019800090ABFFEFCF1ADF0A24E0A20EB11C34E0E30EF11C84E0880E911C93E0C916D104EB
:2019A00009F096CF37C5153061F01730E1F01330F9F4011101C01E8EBE016F5F7F4F86E0AF
:2019C00007C0011101C01E8EBE016F5F7F4F87E00E941F1F882309F4D2C40AC0153099F346
:2019E000173009F013C580915406823008F0B9C41F8EA0915406ADA3A83041F4002309F488
:201A000043C2BE8DB13009F0AEC446C2EE8DE23009F03AC2FDA1FF23E9F020E030E0A9014D
:201A200060915E0670915F0680916006909161060E944938882309F498C42DA1243028F487
:201A4000223060F4213031F027C23DA1383008F413C222C2002309F41AC21EC2002309F48E
:201A600009CE9FA1892F90E09FA78EA7B8A5AB2FB0E0B9ABA8AB81E090E07C010FA002C06F
:201A8000EE0CFF1C0A94E2F708A402C0880F991F0A94E2F7E82AF92A10E00E211F21012BC6
:201AA00009F465C48EA59FA5880F991F880F991FFC01ED5AF94FDC01A457B94F57962D91D4
:201AC0003D914D915C915A9765A576A587A590A90E9453374B015C0188A999A9880F991F5B
:201AE000880F991FFC01ED5AF94FDC01A457B94F57962D913D914D915C915A9765A576A5D1
:201B000087A590A90E94533769A77AA78BA79CA781010078112727FEDEC0E89427F80E945C
:201B20009F33882311F081E27FC4809156068130B1F423E333E34BEC51E4609177067091C7
:201B400078068091790690917A060E94AB3A60937706709378068093790690937A06409059
:201B60007706509078066090790670907A06A5019401C501B4010E94AB3A69A37AA38BA307
:201B80009CA329A53AA54BA55CA5CA01B9010E94AB3A6AAB7BAB8CAB9DAB20E030E040E86A
:201BA00050E4C301B2010E94AB3AA30192010E94AB3A29A13AA14BA15CA10E9453372AA9A8
:201BC0003BA94CA95DA90E9453376B017C0120E030E0A9010E94493887FDCBC3C701B601A3
:201BE0000E944A3B6B017C012AA93BA94CA95DA969A17AA18BA19CA10E9454370E944A3B41
:201C00009B01AC01C701B60190580E9453386B017C01EDA1E33021F4F7FAF094F7F8F09460
:201C200020E030E0A901C301B2010E94493887FF0FC0F7FAF094F7F8F094D301C201B05874
:201C40008093770690937806A0937906B0937A060EA51FA5000F111F000F111F095A194F1E
:201C6000A701960169A57AA58BA59CA50E94AB3A9B01AC01C501B4010E94533720E030E000
:201C800040E05FE30E94AB3AD8011B966D937D938D939C931E9708A919A9000F111F000FFC
:201CA000111F095A194FA7019601C501B4010E94AB3A29A53AA54BA55CA50E94543720E01D
:201CC00030E040E05FE30E94AB3AF8016387748785879687E1C0F9A1CF2ED12CEC20FD20A6
:201CE000EF2809F448C321EF222280915606813009F47DC0EEA5FFA5EE0FFF1FEE0FFF1FAC
:201D0000E95AF94FC384D484E584F684A7019601C501B4010E9453372B013C01E8A9F9A934
:201D2000EE0FFF1FEE0FFF1FE95AF94F83859485A585B68589A39AA3ABA3BCA39C01AD01FB
:201D400069A57AA58BA59CA50E9453374B015C01A3019201C301B2010E94AB3A2B013C0172
:201D6000A5019401C501B4010E94AB3A9B01AC01C301B2010E9454370E944A3B4B015C0169
:201D8000A7019601C701B6010E94AB3A6B017C0129A13AA14BA15CA1CA01B9010E94AB3A7B
:201DA0009B01AC01C701B6010E9454370E944A3B6B017C016093770670937806809379069B
:201DC00090937A069B01AC01C501B4010E9453374B015C01E894B7F82AE037ED43EA5BE303
:201DE000C501B4010E946B3A18164CF155C083E5E82E86E0F82EC601002E02C0959587959A
:201E00000A94E2F780FF12C023E333E34BEC51E4D7011F966D917D918D919C9152970E9403
:201E2000AB3AF7016787708B818B928B0F5F1F4FF4E0EF0EF11C03301105E9F65BCF20E0A7
:201E400030E040E05FE3C501B4010E946B3A18160CF469CE2FE632E143E85AE3C701B601DA
:201E60000E94AB3A9B01AC01C501B4010E946B3A18160CF458CE10C0002309F4FBCB0E9424
:201E80009F33811150CE08C02E8D211105C0C1018E7D9C7F1E8E03C0C1018E7D907E892B60
:201EA00009F06BC280916F0690917006A0917106B091720680939F069093A006A093A10623
:201EC000B093A2068091550680938D0680915E0690915F06A0916006B091610680939A0618
:201EE00090939B06A0939C06B0939D06C0907B06D0907C06E0907D06F0907E06A70196017A
:201F0000609196067091970680919806909199060E9449388823C1F080919506882321F040
:201F2000B701A6010E948A3280917B0690917C06A0917D06B0917E068093960690939706C7
:201F4000A0939806B093990680917F0680939E0680915D0690919506981771F040919606D4
:201F60005091970660919806709199060E948A3280915D068093950610915C068091940686
:201F8000811781F080913406823041F00E94E532123011F4439A02C00E949F0780915C06B0
:201FA0008093940680915306813069F080915806809390068091560680938E063E8D3330A6
:201FC00009F074C054C080913406823079F38090730690907406A0907506B090760620E0CD
:201FE00030E040EA51E4C501B4010E94AB3A0E9438390E94CC386B017C010E94E53220E015
:2020000030E04AE754E4C501B4010E94AB3A4B015C0182E38C9DB0018D9D700D112480E021
:2020200090E00E94FB389B01AC01C501B4010E9453370E9438390E94CC38CB010E946A2CAE
:20204000C114D10409F4B2CF0E94DF2281E0C81AD108809133068111A9CF9FEFA0E7B2E09E
:202060009150A040B040E1F700C00000E9CF8091590680939106813089F480918806909157
:202080008906A0918A06B0918B068093C7069093C806A093C906B093CA0608C01092C70601
:2020A0001092C8061092C9061092CA0680915A0690919206981759F0809392068CE0FE0195
:2020C0003D96AFEAB6E001900D928A95E1F78091570680938F06E09153068E2F90E0FC01CD
:2020E0003297E830F10508F04BC0EB59FF4F0C94013CBE016F5F7F4F8F8D0E9451208091FC
:202100009206EF8DE8133CC08CE0FE013196AFEAB6E01AC0FE8DFF2349F020E040E050E043
:2021200060E87FEB80E896E00E94023320E040E050E060E87FEBCE0101960E9402338CE08D
:20214000FE013196A3EAB6E001900D928A95E1F717C063EA76E086E003C063EA76E087E0C2
:202160000E9451200DC08CE0E0E8F6E0ABEBB6E0EBCF8CE0EBEBF6E0DF011D928A95E9F7E9
:20218000E0915406E0938C06E83009F486C0BE8DB23009F082C08E2F90E08830910508F039
:2021A00073C0FC01E359FF4F0C94013C20E040E050E060E87FEB0AC040919A0650919B06C9
:2021C00060919C0670919D0620918D0680E896E00E94023359C020919A0630919B06409132
:2021E0009C0650919D0660917706709178068091790690917A068824839411C020919A06B6
:2022000030919B0640919C0650919D0660917706709178068091790690917A06812CADA449
:20222000C8A4EFA000918D060E9476342DC060919A0670919B0680919C0690919D0600E0BC
:2022400009C060919A0670919B0680919C0690919D0601E020E014C060919A0670919B0623
:2022600080919C0690919D0600E009C060919A0670919B0680919C0690919D0601E021E0B2
:2022800040918D060E94E0338CE0E0E8F6E0A3EAB6E001900D928A95E1F780915B0680934C
:2022A0009306882309F4C0C00E94E5329091930680913406913071F4823009F43EC09FB776
:2022C000F894809136068860809336069FBF0E94DF2233C091E090938C06109290061092FA
:2022E0008F0610928D061092920610929506109294068230B1F0BE01635F7F4F80E00E94BD
:202300001F1F8823E1F18CE0FE013D96AFEAB6E001900D928A95E1F78FE08093B3000E9497
:202320009F078DEE93E00E945B2681E993E00E945B268AE793E00E945B261092930680E044
:2023400073C081E071C082E06FC088E16DC089E16BC084E069C08BE167C085E265C084E1EB
:2023600063C08EE161C08FE15FC086E15DC080E25BC082E259C083E257C084E255C087E03F
:2023800053C01E3189F0D8F51A3011F40C947F081C3111F40C94340987E146C01E3111F032
:2023A0000C947808A1E0AE8F6115710541F06A307105A9F6E6E0E09353060C944109B5E062
:2023C000B09353060C94410983E00CC01C3571F421E02E8F6115710569F06A30710509F086
:2023E000BECF89E0809353060C944109B1E0BE8F0C94410938E0309353060C944109153363
:2024000011F40C948A081C3529F3C6CF133009F0EFCAD1CA153009F4D7CA173009F4E3CA1F
:20242000133009F0E5CAC8CAE5960FB6F894DEBF0FBECDBFDF91CF911F910F91FF90EF902F
:20244000DF90CF90BF90AF909F908F907F906F905F904F903F902F900895CF93DF93C5E949
:20246000D5E08991882319F00E94E220FACFDF91CF910895CF93DF9321E5829FC00111240E
:20248000EC01DD5F40E550E0BE0185E995E00E94FC06892B59F41092950540E550E065E998
:2024A00075E0CE010E94620780E001C081E0DF91CF910895CF93C0E08C2F0E943A128111C1
:2024C00004C087E00E94FE200AC080919505882331F00E942D120E94A1070E94CE22CF5FE5
:2024E000C23051F7CF9108950F931F93CF93DF93FC0161111BC040815181628173818481C4
:202500009581A681B7818A019B01080F191F2A1F3B1FC901B8010E94FD382091E505309177
:20252000E6054091E7055091E8051AC0613009F580819181A281B3810481158126813781D8
:20254000BC01CD01601B710B820B930B0E94FD382091E9053091EA054091EB055091EC0515
:202560000E94533820E030E040E05FE30E94AB3A14C014E0619FE0011124EC0FFD1F60815F
:202580007181828193810E94FD38CB51DA4F288139814A815B810E945338DF91CF911F915F
:2025A0000F910895EF92FF920F931F93CF937B018C01C0E06C2FC7010E947412F8016193F5
:2025C0007193819391938F01CF5FC33099F7CF911F910F91FF90EF9008951F920F920FB60C
:2025E0000F9211242F933F934F935F936F937F938F939F93AF93BF93EF93FF9386B1809541
:20260000877099F080FF03C00E94752C0EC0982F947021F080913606826005C081FF05C0D2
:2026200080913606886080933606FF91EF91BF91AF919F918F917F916F915F914F913F9176
:202640002F910F900FBE0F901F901895CF93DF93C0918704D09188042097B9F081E08093E2
:202660008A046091A0047091A1048091A2049091A3049B01AC010E94AB3A698B7A8B8B8B33
:202680009C8B1092880410928704DF91CF9108952F923F924F925F926F927F928F929F9283
:2026A000AF92BF92CF92DF92EF92FF920F931F93CF93DF93CDB7DEB7CD54D1090FB6F89417
:2026C000DEBF0FBECDBF80913406807723968FAF2397882389F020E030E0A9016091A0049E
:2026E0007091A1048091A2049091A3040E944938882311F40C94271C2091A0042F8B30912F
:20270000A104388F4091A204498F5091A3045A8F8091B0048B839091B1049D83A091B204DD
:20272000AE83B091B304BC8300919C0410919D04E0919E04E987F0919F04FD8720918F044F
:202740003091900440919104509192042DA33EA34FA358A730918B043DAF40918C044EAF0B
:2027600050918D045FAF80918E0421968FAF219720919704309198044091990450919A04F3
:202780002DAB3EAB4FAB58AF3091310422963FAF229740910C044BA75091E40324965FAFBF
:2027A00024978091E3038B8F9091000125969FAF2597A0918704B0918804BA8BA98B2091B3
:2027C000930430919404409195045091960429AF3AAF4BAF5CAF3091A8043B8B4091A904AD
:2027E0004C8B5091AA045D8B8091AB048E8B9091A4049C8FA091A504AD8FB091A604BE8F70
:20280000E091A704EF8F3090AC042090AD04F091AE04F9832091AF042A8380910B045BA56D
:20282000851709F4F5C649895A89452B09F033C224965FAD24978B8D581709F479C7A82E16
:20284000B12CA9E2AA9DC001AB9D900D1124FC01EF5FFE4FFA8BE98B80918A04882319F00A
:2028600010928A04BCC0809189048F5F853019F08093890402C010928904E091890421E1D1
:202880002E9FF0011124EE5CFB4F89E28A9DA0018B9D500D11244F5F5E4F7A01DA018C91F6
:2028A000808311964D915D916D917C911497DB01CA0123E0880F991FAA1FBB1F2A95D1F7C9
:2028C00081839283A383B483D70115964D915D916D917C911897DB01CA0133E0880F991F70
:2028E000AA1FBB1F3A95D1F785839683A783B087D70119964D915D916D917C911C97DB012F
:20290000CA0143E0880F991FAA1FBB1F4A95D1F781879287A387B487D7011D966D917D9113
:202920008D919C9150978B019C0153E0000F111F221F331F5A95D1F7058716872787308BEE
:202940000E94FB386DAF7EAF8FAF21969FAF2197F70125A136A147A150A50E9453386DA3AF
:202960007EA38FA398A79B01AC0160E070E080EA9FE30E94533869AF7AAF8BAF9CAF239654
:20298000FFAD2397FF23D1F02B893C894D895E896B897C898D899E890E94AB3AD70151963C
:2029A0006D937D938D939C935497BB89BF8BEC89E88FFD89F98F2E892A8F0DC0D701519649
:2029C0006D917D918D919C9154970E944A3B6F8B788F898F9A8F1DAA1EAA1FAA18AE29E223
:2029E0002A9DF0012B9DF00D1124EF5FFE4FFE87ED87C1A0D2A0E3A0F4A0A701960160E028
:202A000070E080E09FE30E94533869877A878B879C8723963FAD23973323F1F142E04093A5
:202A20009B04AD85BE8595964D905D906D907C90989751968D909D90AD90BC905497A5010A
:202A400094010E94AB3A9B01AC01C301B2010E9453378B0189879D8720E030E0A9010E9452
:202A6000493887FF1BC1A7019601C701B6010E945437A30192010E94AB3A9B01AC01C501BB
:202A8000B4010E9453370E944A3B6B8B7C8B8D8B9E8B3F82288615C110929B04ED85FE8575
:202AA000F5A1FF83AD85BE859696BC91B887ED85FE8507A110A5EB8DEF5FE23109F4E0E0E9
:202AC0002496FFAD2497EF1789F029E22E9FF0011124EF5FFE4F61897289838994890E940D
:202AE0004A3B6B8B7C8B8D8B9E8B04C01B8A1C8A1D8A1E8A2B893C894D895E896B897C8986
:202B00008D899E890E94AB3A2B013C0189E28A9DA0018B9D500D11244F5F5E4F5AA349A357
:202B2000DA0151962D913D914D915C9154972D873E874F87588BA30192016D857E858F851F
:202B400098890E94533729853A854B855C850E94AB3A2F813885A8010E94543720E030E030
:202B600040E05FE30E94AB3A362E272E89839A8320E030E0A9010E946B3A18160CF095C00A
:202B8000232D322D49815A816F817885C8010E946B3A18160CF071C0E9A1FAA1858C968C31
:202BA000A78CB0A0A3019201C501B4010E94533729853A854B855C850E94AB3A6B837D8321
:202BC0008E839C839B01AC01632D722D89819A810E946B3A181694F5C501B4010E944A3B88
:202BE0006C8F7D8F8E8F9F8FA50194016D857E858F8598890E944938811106C0F1E0F0934F
:202C00009B0409831A835DC02D853E854F855889C501B4010E94533729853A854B855C85E0
:202C20000E94AB3A9B01AC016F817885C8010E9453376F83788789839A8343C0A701960186
:202C4000C701B6010E945437232D322D49815A810E94AB3AA30192010E9454370E944A3B62
:202C60006C8F7D8F8E8F9F8F3F8228863B822D8229812E833A813C8324C042E040939B04DA
:202C800009831A835F895C8F888D8D8F998D9E8FAA8DAF8F16C03F82288617C03F822886B4
:202CA0001B8A1C8A1D8A1E8A10C0BB89BC8FEC89ED8FFD89FE8F2E892F8F1F8218861982C8
:202CC0001A8200E010E019861D8622965FAD2297452F50E05AA749A786E0849FF001859F96
:202CE000F00D1124E35FFB4F809189048283A989BA899596BC91B8ABE989FA89F6A1F9ABF3
:202D0000A989BA899796BC912696BFAF2697E989FA89F0A52796FFAF279729AD3AAD4BAD75
:202D20005CAD68A979A98B2F9F2F0E9453376CA77DA78EA79FA720E030E0A9010E94493814
:202D400087FF04C01CA61DA61EA61FA620919B0428A32B813D814E815C816F8178858981F3
:202D60009A810E944938811105C032E028963FAF289704C041E028964FAF289728A859A90F
:202D80002E965FAF2E9726968FAD26972D968FAF2D9727963FAC27978EE3C82E83ECD82EE0
:202DA0008EE2E82E89E3F82E412C512C3201C9A2DAA2EBA2FCA238A1332321F0313009F42E
:202DC00085C0C5C0A989BA8991962D913D914D915C919497C701B6010E94AB3A4B015C015C
:202DE00020E030E040E05FE30E94AB3A2F89388D498D5A8D0E945437A70196010E94AB3AAD
:202E00009B01AC01622D2E967FAD2E972D968FAD2D97932D0E945337262E2E967FAF2E976B
:202E20002D968FAF2D97392E2F81388549815A810E94493887FF3DC02F81388549815A819C
:202E400068A979A926968FAD269727969FAD27970E9453379B01AC010E9454376B017C0138
:202E60002C8D3D8D4E8D5F8D6F89788D898D9A8D0E9454379B01AC01C701B6010E945338AC
:202E80006B017C012896BFAD2897B8A3EC8DEF8BFD8DF88F2E8D298F3F8D3A8F2F8048857D
:202EA0002E964FAF2E9759812D965FAF2D973A80EBC0A50194016F89788D898D9A8D0E94A0
:202EC00054376F8B788F898F9A8FDEC02C8D3D8D4E8D5F8DC701B6010E94AB3A9B01AC01EE
:202EE000622D2E967FAD2E972D968FAD2D97932D0E9453374B015C012B813D814E815C8120
:202F00000E94493887FFB8C02B813D814E815C81622D2E967FAD2E972D968FAD2D97932DB3
:202F20000E9453372C8D3D8D4E8D5F8D0E9453386B017C012B808D812E968FAF2E979E8166
:202F40002D969FAF2D973C80A2E0A8A39DC0E989FA8921A132A143A154A1C701B6010E9432
:202F6000AB3A4B015C012F89388D498D5A8D0E94493887FF52C020E030E040E05FE3C50196
:202F8000B4010E94AB3A9B01AC016F89788D898D9A8D0E945337A70196010E94AB3A9B01E4
:202FA000AC01622D2E967FAD2E972D968FAD2D97932D0E94533729966FAF29972A967FAFE6
:202FC0002A972B968FAF2B972C969FAF2C97980149855D850E946B3A1816FCF4A5019401B3
:202FE0006F89788D898D9A8D0E9453376F8B788F898F9A8F29962FAC29972A96FFAD2A97A2
:203000002E96FFAF2E972B962FAD2B972D962FAF2D972C963FAC2C9737C0980149855D8505
:20302000622D2E967FAD2E972D968FAD2D97932D0E9453379B01AC010E9454376B017C013E
:203040002B893C894D895E896F89788D898D9A8D0E9454379B01AC01C701B6010E945338DE
:203060006B017C01202E2E961FAF2E9739852D963FAF2D973D8408C0282C2E969FAE2E97DC
:203080002D96AFAE2D973B2CA7019601C301B2010E9454372B013C0129A13AA14BA15CA10B
:2030A0000E94493887FF07C0A301920169A17AA18BA19CA120C02CA53DA54EA55FA5622DC2
:2030C0002E967FAD2E972D968FAD2D97932D0E946B3A181644F52EE333EC4EE259E369A164
:2030E0007AA18BA19CA10E94543769A37AA38BA39CA3A30192010E9453376B017C019801A4
:2031000049855D85622D2E967FAD2E972D968FAD2D97932D0E946B3A18160CF44CCE48A1C0
:2031200040939B0403C058A150939B042DA13EA14FA158A5622D2E967FAD2E972D968FAD02
:203140002D97932D0E94AB3A68A379A38CA798AB0E9432386B017C016DAD7EAD8FAD21969A
:203160009FAD21970E9432384B015C01A70196010E9453370E94CC3869AB7AAB8BAB9CABCF
:20318000A6E089A59AA5A89FF001A99FF00D1124E35FFB4F29A93AA931832083232B09F0AB
:2031A00087C023965FAD2397552309F481C0C801A985BD8580939C0490939D04A0939E040E
:2031C000B0939F048B899C89AD89BE898093A8049093A904A093AA04B093AB048C8D9D8DAE
:2031E000AE8DBF8D8093A4049093A504A093A604B093A7048B819D81AE81BC818093B00499
:203200009093B104A093B204B093B3048F819885A981BA818093AC049093AD04A093AE04E5
:20322000B093AF0422968FAD229780933104A989BA89B0938804A093870429AD3AAD4BADEC
:203240005CAD209393043093940440939504509396043B8D3093E3038DA19EA1AFA1B8A54C
:2032600080938F0490939004A0939104B09392049BA590930C041092A0041092A1041092AE
:20328000A2041092A30410929704109298041092990410929A04C0928B04D0928C04E09200
:2032A0008D04F0928E042DA13EA14FA158A565C12DA93EA94FA958ADC301B2010E9454374B
:2032C0002B013C0128A139A14CA558A9C501B4010E9453379B01AC01C301B2010E9453385C
:2032E0004B015C0128A139A14CA558A9C701B6010E945337A50194010E94AB3A6DAB7EABE2
:203300008FAB98AF20EC31EE44E65EE4C501B4010E94AB3A0E9432380E94CC38603DE7E07D
:203320007E078105910560F446E029A53AA5429FF001439FF00D1124E35FFB4F158253C0A9
:20334000603A5FE075078105910560F426E0A9A5BAA52A9FF0012B9FF00D1124E35FFB4FB3
:2033600031E011C060344FE174078105910568F426E0A9A5BAA52A9FF0012B9FF00D11244B
:20338000E35FFB4F32E035830CC0A6E049A55AA5A49FF001A59FF00D1124E35FFB4FB3E0CF
:2033A000B58346E029A53AA5429FF001439FF00D1124E35FFB4F2581022E04C096958795AF
:2033C000779567950A94D2F7A9A9BAA902C0AA0FBB1F2A95E2F7B183A08361157105B1E008
:2033E0008B07910568F446E029A53AA5429FF001439FF00D1124E35FFB4F7483638304C063
:203400008FEF9FEF94838383BBA4B39496E0B91201C0B12C980149855D85622D2E967FAD36
:203420002E972D968FAD2D97932D0E946B3A1816CCF4822D2E969FAD2E972D96AFAD2D97A8
:20344000B32DE989FA8985A396A3A7A3B0A7F8A1FDAF29A12EAF3CA53FAF48A921964FAF34
:203460002197CEC020E030E0A901622D2E967FAD2E972D968FAD2D97932D0E946B3A181610
:203480000CF0A7C0C801A985BD8580939C0490939D04A0939E04B0939F048B899C89AD89EF
:2034A000BE898093A8049093A904A093AA04B093AB048C8D9D8DAE8DBF8D8093A4049093BB
:2034C000A504A093A604B093A7048B819D81AE81BC818093B0049093B104A093B204B09317
:2034E000B3048F819885A981BA818093AC049093AD04A093AE04B093AF045BA550933104F9
:2035000089899A89909388048093870429AD3AAD4BAD5CAD2093930430939404409395045A
:20352000509396043B8D3093E3038DA19EA1AFA1B8A580938F0490939004A0939104B0931B
:203540009204B0920C041092A0041092A1041092A2041092A3041092970410929804109248
:20356000990410929A04C0928B04D0928C04E0928D04F0928E049C01AD01C701B6010E9418
:203580005338A989BA8995966D937D938D939C9398970E942613BB8DB0930001C35BDF4FBF
:2035A0000FB6F894DEBF0FBECDBFDF91CF911F910F91FF90EF90DF90CF90BF90AF909F900B
:2035C0008F907F906F905F904F903F902F900C94E6262496EFAD2497FB8DEF1779F08F2FF0
:2035E0008F5F823109F480E02B8D25963FAD2597231303C025968FAF25978B8F1A8A198AA3
:203600003F8028844BA522964FAF2297BBA605C9C801A985BD8580939C0490939D04A093CE
:203620009E04B0939F048B899C89AD89BE898093A8049093A904A093AA04B093AB048F89D2
:20364000988DA98DBA8D8093A0049093A104A093A204B093A3048C8D9D8DAE8DBF8D8093A9
:20366000A4049093A504A093A604B093A7048B819D81AE81BC818093B0049093B104A093A3
:20368000B204B093B304832D922DA981BA818093AC049093AD04A093AE04B093AF0422967C
:2036A0008FAD229780933104A989BA89B0938804A093870429AD3AAD4BAD5CAD20939304C3
:2036C0003093940440939504509396043B8D3093E3038DAD9EADAFAD2196BFAD2197809366
:2036E0008B0490938C04A0938D04B0938E048DA19EA1AFA1B8A580938F0490939004A09345
:203700009104B09392042DA93EA94FA958AD20939704309398044093990450939A043BA503
:2037200030930C0425964FAD2597409300018FC0C801A985BD8580939C0490939D04A0933D
:203740009E04B0939F048B899C89AD89BE898093A8049093A904A093AA04B093AB048F89B1
:20376000988DA98DBA8D8093A0049093A104A093A204B093A3048C8D9D8DAE8DBF8D809388
:20378000A4049093A504A093A604B093A7048B819D81AE81BC818093B0049093B104A09382
:2037A000B204B093B304832D922DA981BA818093AC049093AD04A093AE04B093AF0422965B
:2037C0005FAD229750933104109288041092870489AD9AADABADBCAD80939304909394040E
:2037E000A0939504B093960424969FAD24979093E3038DAD9EADAFAD2196BFAD2197809387
:203800008B0490938C04A0938D04B0938E042DA13EA14FA158A520938F04309390044093C3
:203820009104509392048DA99EA9AFA9B8AD8093970490939804A0939904B0939A049BA5E2
:2038400090930C042596AFAD2597A0930001C35BDF4F0FB6F894DEBF0FBECDBFDF91CF91CB
:203860001F910F91FF90EF90DF90CF90BF90AF909F908F907F906F905F904F903F902F90D6
:20388000089580911606682F20911706422F982F917080FD94E0822F817020FD80E261FD50
:2038A000986041FD806462FD906142FD80689093E6038093E50308951F920F920FB60F921B
:2038C00011248F939F938BB19091E6039C71837E892B8BB915BC9F918F910F900FBE0F90E7
:2038E0001F90189580916F008D7F80936F0080918100887F8160809381001092E7038091B3
:2039000018068F3F21F490913706992349F090913406943029F090E00E946A2C81E001C051
:2039200080E09091220692FF02C091E08927882311F0289A0895289808950E94721C8BE265
:20394000E9E8F4E0DF011D928A95E9F783E2E8EEF3E0DF011D928A95E9F7109288041092C8
:20396000870410920B041092310481E080930C041092E7030E94411C8BB1837E9091E603DE
:20398000892B8BB98BB18F719091E503892B8BB908951F920F920FB60F9211242F933F93D4
:2039A0004F935F936F937F938F939F93AF93BF93EF93FF938091E703811110C28BB1909167
:2039C000F703907E8F71892B8BB98BB1837E9091F603892B8BB98091F50386BD82E085BDA8
:2039E00081E08093E70378948091090490910A04892B09F0ADC080910B04909131049817D1
:203A000009F49BC0E0910B042E2F30E086E0E89FF0011124E35FFB4FF0930A04E0930904B1
:203A2000838194819093890080938800808191819093050480930404E281809106048E17A9
:203A400061F1E093060481E1E89FF0011124EE5CFB4FF0930804E093070485859685A78596
:203A6000B089B695A795979587958093F0039093F103A093F203B093F3038093EC0390939B
:203A8000ED03A093EE03B093EF038093E8039093E903A093EA03B093EB03E0910704F09182
:203AA000080490818091E50389278093F70386E0829FD001839FB00D1124A35FBB4F159610
:203AC0002C9181819281A381B481022E04C0B695A795979587950A94D2F78093F803909360
:203AE000F903A093FA03B093FB0385819681A781B085022E04C0B695A795979587950A947E
:203B0000D2F78093FC039093FD03A093FE03B093FF0381859285A385B48504C0B695A79565
:203B2000979587952A95D2F78093000490930104A0930204B09303040BC00E94721C9FB7A2
:203B4000F894809136068460809336069FBF46C1809145068130B1F486B1807290913206C0
:203B6000891781F0109245068CE0E8E3F6E0A6E4B6E001900D928A95E1F7809136068064C2
:203B8000809336061092F6034091E8035091E9036091EA037091EB038091F8039091F903BC
:203BA000A091FA03B091FB03840F951FA61FB71F8093E8039093E903A093EA03B093EB0358
:203BC000E0910704F09108044585568567857089481759076A077B0768F524E02093F60393
:203BE0004585568567857089841B950BA60BB70B8093E8039093E903A093EA03B093EB032B
:203C000020818091380690913906A0913A06B0913B0625FF04C00197A109B10903C0019623
:203C2000A11DB11D8093380690933906A0933A06B0933B064091EC035091ED036091EE03DB
:203C40007091EF038091FC039091FD03A091FE03B091FF03840F951FA61FB71F8093EC03E7
:203C60009093ED03A093EE03B093EF034585568567857089481759076A077B0778F520917E
:203C8000F60328602093F6034585568567857089841B950BA60BB70B8093EC039093ED03A6
:203CA000A093EE03B093EF03208180913C0690913D06A0913E06B0913F0626FF04C00197D7
:203CC000A109B10903C00196A11DB11D80933C0690933D06A0933E06B0933F064091F0031C
:203CE0005091F1036091F2037091F3038091000490910104A0910204B0910304840F951F11
:203D0000A61FB71F8093F0039093F103A093F203B093F30345855685678570894817590741
:203D20006A077B0778F52091F60320612093F6034585568567857089841B950BA60BB70B10
:203D40008093F0039093F103A093F203B093F30320818091400690914106A0914206B091CB
:203D6000430627FF04C00197A109B10903C00196A11DB11D8093400690934106A0934206F0
:203D8000B093430680913406843039F49091F6038091440689238093F60380910404909104
:203DA000050401979093050480930404892B69F410920A041092090480910B048F5F80938A
:203DC0000B04863011F410920B049091F6038091E60389278093F6031092E703FF91EF91FC
:203DE000BF91AF919F918F917F916F915F914F913F912F910F900FBE0F901F9018958091FB
:203E0000220682FF02C0289A01C02898809134068C70A1F08091E5038093F7038091E6031C
:203E20008093F60380911506880F845081958093F50380916F00826080936F0008951F938B
:203E4000CF93DF93182FEB018DE0189FB00111247E5F4CE050E0CE010E94FC06892B59F4A4
:203E60008CE0FE0111928A95E9F7BE01812F0E94512080E001C081E0DF91CF911F91089514
:203E800069E080E090E00E9440074DE450E065EE75E081E090E00C946207EF92FF920F9389
:203EA0001F93CF93DF93CDB7DEB72C970FB6F894DEBF0FBECDBF182F80FFC1C08AE0809395
:203EC000150689E180931806109216061092170683E0809319068AE097EDA3E2BCE38093F5
:203EE0001A0690931B06A0931C06B0931D068FE692E1A3E0BBE380931E0690931F06A093E8
:203F00002006B09321061092230680E090E0A8ECB1E48093240690932506A0932606B09320
:203F2000270680E090E0AAEFB3E48093280690932906A0932A06B0932B062AEF30E03093FE
:203F40002D0620932C0640E050E060E87FE340932E0650932F06609330067093310610922B
:203F6000220640E050E06AE773E44093E5055093E6056093E7057093E8054093E905509323
:203F8000EA056093EB057093EC054093ED055093EE056093EF057093F0058093F1059093B5
:203FA000F205A093F305B093F4058093F5059093F605A093F705B093F8058093F9059093D5
:203FC000FA05A093FB05B093FC0580E090EAACE0B7E48093FD059093FE05A093FF05B093B5
:203FE00000068093010690930206A0930306B09304068093050690930606A0930706B0931D
:20400000080680E090E0A8E4B3EC8093090690930A06A0930B06B0930C0680930D06909360
:204020000E06A0930F06B09310068093110690931206A0931306B09314060E94401F11FFAC
:2040400010C0CE0101967C018CE0F70111928A95E9F700E0B701802F0E9451200F5F0830A7
:20406000C9F712FF0AC060E080E093E00E94400760E081E593E00E94400713FF05C060E090
:204080008EEA93E00E9440072C960FB6F894DEBF0FBECDBFDF91CF911F910F91FF90EF9015
:2040A00008952DE0829FC00111244CE050E09E5F0C9462071F920F920FB60F9211242F932E
:2040C0003F934F935F936F937F938F939F93AF93BF93EF93FF938091C6008F33A9F050F4B4
:2040E000883109F1813211F59FB7F89480913606886015C0803471F08E37C1F49FB7F894F7
:204100008091360682600BC09FB7F89480913606816005C09FB7F8948091360680628093AC
:2041200036069FBF14C00E94752C11C0E091350591E09E0F903809F490E02091340592176C
:2041400031F0F0E0EC54FB4F808390933505FF91EF91BF91AF919F918F917F916F915F9194
:204160004F913F912F910F900FBE0F901F9018951F920F920FB60F9211248F939F93EF93A5
:20418000FF9380917705E82FF0E0E95CFA4F90819093C6008F5F803409F480E08093770503
:2041A00090913605891305C08091C1008F7D8093C100FF91EF919F918F910F900FBE0F9025
:2041C0001F901895E091360591E09E0F903431F490E004C02091360624FD0FC02091770592
:2041E0002917C1F3F0E0E95CFA4F8083909336058091C10080628093C1000895CF93C82F8E
:2042000083E398E00E945B268C2F90E0FC013197E631F10580F5EB58FF4F0C94013C8BE151
:2042200098E002C089E098E00E945B262BC087EF97E0FACF8DEE97E0F7CF8CED97E0F4CF34
:204240008DEC97E0F1CF8CEA97E0EECF83EA97E0EBCF88E997E0E8CF85E897E0E5CF87E7C1
:2042600097E0E2CF81E697E0DFCF8DE497E0DCCF89E397E0D9CF87E297E00E945B268C2FAE
:204280000E944B2684E297E0CF910C945B26CF938EE197E00E945B26C0E06C2F86E496E027
:2042A0000E9474120E94FF25C23021F08CE197E00E945B26CF5FC33081F78AE197E00E94E9
:2042C0005B26809152060E944B2686E197E0CF910C945B26FF920F931F93CF93DF9382E166
:2042E00097E00E945B26809115060E944B2689EF96E00E945B26809118060E944B268BED1A
:2043000096E00E945B26809116060E944B2682EC96E00E945B26809116060E9457268BEBFB
:2043200096E00E945B26809117060E944B2683EA96E00E945B26809117060E9457268CE9DB
:2043400096E00E945B268091220682FB882780F90E944B268BE796E00E945B26809122068F
:2043600086FB882780F90E944B268BE596E00E945B2680912206881F8827881F0E944B262F
:204380008BE396E00E945B26809119060E944B2685E296E00E945B26809119060E94572684
:2043A0008DE196E00E945B2660911A0670911B0680911C0690911D060E94ED258DEF95E0A7
:2043C0000E945B2660911E0670911F0680912006909121060E94ED2582EE95E00E945B2644
:2043E0008091220681700E944B2685EC95E00E945B268091220685FB882780F90E944B2683
:204400008AEA95E00E945B268091220683FB882780F90E944B268FE895E00E945B2680917E
:204420002206829581700E944B2683E795E00E945B26809123060E944B2689E595E00E9465
:204440005B26809123060E94572681E595E00E945B266091240670912506809126069091DF
:2044600027060E94ED2584E395E00E945B26609128067091290680912A0690912B060E94D8
:20448000ED2587E195E00E945B2680912C060E944B2688EF94E00E945B2660912E06709180
:2044A0002F0680913006909131060E94ED258FED94E00E945B2684E6F82EC0E005EE15E049
:2044C000D0E08DED94E00E945B268D2F8F0D0E944B268BED94E00E945B26C23079F0F8014D
:2044E000C330C1F0C13029F0608171818281938118C0648575858685978513C020E030E05F
:2045000041E655E4F801608D718D828D938D0E94533807C084A195A1A6A1B7A1BC01CD01AF
:2045200090580E94ED2588ED94E00E945B26D13029F0D23031F086ED94E005C084ED94E005
:2045400002C082ED94E00E945B26C23051F0C33059F0C13019F088EC94E008C086EB94E095
:2045600005C085EA94E002C085E994E00E945B2681E994E00E945B26DF5F0C5F1F4FD330B1
:2045800009F09FCFFAE0FF0ECF5F8CE8F81296CFDF91CF911F910F91FF900895811104C01A
:2045A0008FEE93E00C945B260C94FE209FB7F894E3E3F6E08381826083839FBF08952F9206
:2045C0003F924F925F926F927F928F929F92AF92BF92CF92DF92EF92FF920F931F93CF93A8
:2045E000DF93CDB7DEB768970FB6F894DEBF0FBECDBF01E09FE0392E29E2A22E38E0732E8F
:2046000040E2642E50E1B52E60E4562E72E0472E10913706112309F45BC00093340611FF3C
:2046200007C087E394E00E945B268CE294E023C012FF07C087E394E00E945B2681E294E03D
:204640001AC013FF07C087E394E00E945B268EE094E011C014FF07C087E394E00E945B2618
:2046600083E094E008C015FF10C087E394E00E945B2687EF93E00E945B2684EF93E00E9422
:204680005B2684EF91E00E946A2C10FD08C08FB7F89490913706109237068FBF19C08DEEF7
:2046A00093E00E945B268BED93E00E945B268AE793E00E945B269FB7F894809136068F7E13
:2046C000809336069FBF8091360684FFFCCFDFCF10913606112309F4AEC114FF04C081E02F
:2046E00080933306B9C110FFF0C08CE0E8E3F6E0DE011D9601900D928A95E1F78091340624
:204700008430E9F040F48130E9F080F0823009F58CE694E01CC0803179F018F4883049F055
:2047200018C0803291F0803421F013C08BE894E00EC086E894E00BC080E894E008C08AE75F
:2047400094E005C083E794E002C086E694E00E945B2680911906837039F0BE01635F7F4FE2
:20476000CE0101960E94D2128091190680FD05C08091190681FF6BC01CC08FE594E00E949A
:204780005B26CE0101967C01D12CF70161917191819191917F010E94FF25F2E0DF1621F07A
:2047A0008DE594E00E945B26D39423E0D212EDCFDFCF86E594E00E945B268FEAC82E86E061
:2047C000D82ECE0101967C01212C4701F60161917191819191916F012085318542855385D2
:2047E0000E9454379B01AC01F70160817181828193810E945337F70160837183828393834B
:20480000F2E02F120FC02091C7063091C8064091C9065091CA060E945337F701608371835D
:2048200082839383F4E0EF0EF11CF40160817181828193810E94FF25F2E02F1621F084E549
:2048400094E00E945B26239423E02212BECF8091190682FF0EC08EE494E00E945B268091AD
:20486000E4039091E303891708F48E5E891B0E944B268091190683FF0EC089E494E00E9408
:204880005B269091340580913505891708F48058891B0E944B268091190684FF0AC083E4E3
:2048A00094E00E945B260E94900443E062E00E940E268FE394E00E945B269FB7F8948091F4
:2048C00036068E7F809336069FBF812F887609F444C080913406882349F0982F9C77A9F190
:2048E000883021F40E9426130093350680913406811102C04092350616FF09C0883011F4FB
:20490000509234068091350688608093350613FF05C08091340685FFB092340615FF15C0EE
:204920008DEE93E00E945B2689E993E00E945B268AE793E00E945B268091350681FD146019
:20494000846080933506609234069FB7F894809136068779809336069FBF11FF4CC0812F51
:20496000887609F040C080913406882331F08075D1F18091350681FF36C08091350682FFE3
:2049800016C080919506882321F080EA9FE00E946A2C80919406882351F0823011F4439A8D
:2049A00002C00E949F0788EE93E00E946A2C8091E3039091E403981791F0A89EC001112461
:2049C0008F5F9E4F892B59F08091350683FD07C0709234060E9448130E94FF1E02C0109210
:2049E0003406109235069FB7F894809136068D7F809336069FBF12FF1EC08091340680738B
:204A000071F08091350682FF04C03092B3000E949F078091350682608093350604C0109205
:204A20003506109234069FB7F894809136068B7F809336069FBF809134068C7711F00E9488
:204A400048139091340680913506903219F481FDB09234068111DCCD68960FB6F894DEBF64
:204A60000FBECDBFDF91CF911F910F91FF90EF90DF90CF90BF90AF909F908F907F906F90F7
:204A80005F904F903F902F9008958F929F92AF92BF92CF92DF92EF92FF920F931F93CF939F
:204AA000DF93CDB7DEB72A970FB6F894DEBF0FBECDBF6B017C01042F20E030E0A9010E94EB
:204AC000493887FF07C08DE20E94E220F7FAF094F7F8F094102F123060F020E030E048ECF8
:204AE00052E4C701B6010E94AB3A6B017C011250F2CF00FF0AC020E030E040E251E4C70176
:204B0000B6010E94AB3A6B017C0120E030E040E05FE3C701B6010E9454370E94C538E1E0F0
:204B2000F0E0EC0FFD1FE00FF11D2EE2208310E03AE0832E912CA12CB12C6115710581054A
:204B40009105A9F0101301C01F5FEE24E394F12CEC0EFD1EE10EF11CA50194010E94C03B35
:204B6000605DF7016083B901CA011F5FE6CF80E3101748F4E1E0F0E0EC0FFD1FE10FF11D79
:204B800080831F5FF5CF10130BC081E0810FE1E0F0E0EC0FFD1FE80FF11D1E5F80E3808361
:204BA000112341F0FE01E10FF11D80810E94E2201150F6CF2A960FB6F894DEBF0FBECDBFC1
:204BC000DF91CF911F910F91FF90EF90DF90CF90BF90AF909F908F90089543E00C94452533
:204BE0002091220620FF08C02BE832E441E25DE30E94AB3A41E001C040E00C944525209125
:204C0000220620FF08C02BE832E441E25DE30E94AB3A44E001C043E00C944525CF92DF928E
:204C2000EF92FF921F93CF93DF93CDB7DEB7362F142FCDB6DEB64DB75EB7411B51090FB670
:204C4000F8945EBF0FBE4DBF4F5F5F4F7A01242FFA019E2F921B911728F4632F0E94B43B4C
:204C60009193F7CF112351F0F701E10FF11D31978081805D0E94E2201150F4CF0FB6F89420
:204C8000DEBE0FBECDBEDF91CF911F91FF90EF90DF90CF9008958A3020F0843620F043E070
:204CA00003C041E001C042E06AE00C940E2648E062E00C940E26CF93DF93FC018491EF01FB
:204CC0002196882321F00E94E220FE01F7CFDF91CF9108954F925F926F927F928F929F9255
:204CE000AF92BF92CF92DF92EF92FF92CF93DF9300D000D0CDB7DEB7E3E3F6E0C580D6807A
:204D0000E780F084418452846384748485859685A785B08989839A83AB83BC83C301B201A7
:204D20006C0D7D1D8E1D9F1D22E0822E912CA12CB12CA50194010E94E23BA9E7B5E02D9301
:204D40003D934D935C931397C701B6016419750986099709A50194010E94E23B20937D0532
:204D600030937E0540937F055093800589819A81AB81BC818093810590938205A0938305A2
:204D8000B09384050F900F900F900F90DF91CF91FF90EF90DF90CF90BF90AF909F908F9043
:204DA0007F906F905F904F9008958CE1E9E7F5E0DF011D928A95E9F71092E3031092E403C9
:204DC00081E0809378051092000108952F923F924F925F926F927F928F929F92AF92BF9248
:204DE000CF92DF92EF92FF920F931F93CF93DF93C091E403C11101C0C2E1C150D0910001C6
:204E0000DC1709F41DC1EC2EF12C29E2C29F800111240F5F1E4FF801A588B688C788D08C81
:204E200061A172A183A194A19B01AC010E945437F80125A136A147A150A50E94AB3A4B0148
:204E40008C019B01AC01B501C6010E94493887FD02C05401680189E28E9DF0018F9DF00D28
:204E60001124EF5FFE4FC501D601818B928BA38BB48BC11101C0C2E1C150DC1761F029E299
:204E80002E9DC0012F9D900D11249C012F5F3E4F7901D9E233C08091E303D81360C00E9464
:204EA00026135DC0AC2EB12CDA9DC001DB9D900D1124FC01EF5FFE4F6F01C11101C0C2E125
:204EC000C1508091E3038C1302C00E942613DA9D8001DB9D100D11240F5F1E4FF8018588EB
:204EE0009688A788B08CA501940161897289838994890E944938811106C0760180910001DC
:204F0000C813D0CF2CC0F80161A172A183A194A19B01AC010E945437F80125A136A147A1D0
:204F200050A50E94AB3AF70121893289438954890E9454372B013C019B01AC01C501B40195
:204F40000E946B3AF80118162CF4418A528A638A748AD3CF818A928AA38AB48ACECFD091FF
:204F60000001F9E2DF9F800111240F5F1E4FC1E0CD0FC23109F4C0E02090E40389E2382ED1
:204F8000C21509F45BC0CC2ED12C3C9CC0013D9C900D11249C012F5F3E4F7901F8014188F3
:204FA000528863887488F90181889288A388B488A5019401C301B2010E94493887FF24C06D
:204FC000F80161A172A183A194A19B01AC010E945437F80125A136A147A150A50E94AB3AFA
:204FE000A30192010E9454372B013C019B01AC01C501B4010E946B3A181634F4F701418AC0
:20500000528A638A748ADC2F3C9CF0013D9CF00D1124EF5FFE4F258936894789508D61894B
:205020007289838994890E944938811101C0DC2FCF5FC23109F4C0E08701A2CFD0930001B0
:20504000DF91CF911F910F91FF90EF90DF90CF90BF90AF909F908F907F906F905F904F909C
:205060003F902F9008952F923F924F925F926F927F928F929F92AF92BF92CF92DF92EF9258
:20508000FF920F931F93CF93DF93CDB7DEB7C854D1090FB6F894DEBF0FBECDBF9DAB8CAB82
:2050A0004BA35CA36DA37EA327962FAF27972091E4032DA7222E312C39E2239F80011124CD
:2050C0000F5F1E4FD8011D961D921D921D921C925097F80115A216A217A210A6108289E9EC
:2050E00096E7A6E9BEE781A392A3A3A3B4A32091E5053091E6054091E7055091E805ACA9E2
:20510000BDA96D917D918D919C910E94AB3A0E94783A2B013C0169837A838B839C832091C7
:20512000E9053091EA054091EB055091EC05ECA9FDA964817581868197810E94AB3A0E94E0
:20514000783A6D837E838F839887C0907905D0907A05E0907B05F0907C054C185D086E089E
:205160007F08C0907D05D0907E05E0907F05F0908005DC01CB018C199D09AE09BF09A301E3
:205180009201280F391F4A1F5B1F2F8F38A349A35AA369017A0157FF08C0F094E094D09429
:2051A000C094C11CD11CE11CF11CF801C182D282E382F482481A590A6A0A7B0A89E2829D14
:2051C000F001839DF00D1124EF5FFE4FD301C20177FE07C088279927DC0184199509A609E8
:2051E000B70985839683A783B0872091ED053091EE054091EF055091F00522962CAF3DAFFC
:205200004EAF5FAF22978091810590918205A0918305B091840526968CAF9DAFAEAFBFAFFA
:205220002697BDA5A9E2BA9FC0011124FC01EE5FFE4FF9AFE8AF9E01235F3F4F38A72FA33F
:2052400045EE55E05FA74EA7CE0101969AA789A7A9E7B5E0B9ABA8ABBBABAAAB5E8F4D8FB4
:205260004FA158A55BAF4AAF1B8E29E2229DC001239D900D11248C010F5F1E4FC8010D96A4
:205280009DAF8CAFD8019596BFABAEABF80139962996FFAFEEAF2997E8ADF9AD81919191BF
:2052A000A191B191F9AFE8AFECADFDAD80809180A280B38088169906AA06BB0610F44C0193
:2052C0005D01ACADBDAD8D929D92AD92BC921397BB8DB1110DC06F8D78A189A19AA10E9435
:2052E000FD38ED8DFE8D208131814281538120C0FB8DF13019F4C301B20112C0E9A5FAA57E
:2053000080819181A281B381EAA9FBA9C080D180E280F380BC01CD016C197D098E099F09B1
:205320000E94FD38AD8DBE8D2D913D914D915C910E9453386B017C01EAADFBAD619371936D
:2053400081939193FBAFEAAF20E030E0A9010E94493887FF0EC0FB8DFF2321F0F13021F0B4
:2053600080E803C080E201C080E4D8019C91892B8C93A7019601C701B6010E94AB3AEEA9C6
:20538000FFA920813181428153810E945437AEA9BFA96D937D938D939C931397BB8DBF5F20
:2053A000BB8FB33009F448C0FB8DF23099F5ACA9BDA918962D913D914D915C911B97229659
:2053C0006CAD7DAD8EAD9FAD22970E94AB3A0E94783A69877A878B879C87DC01CB012696E4
:2053E0002CAD3DAD4EAD5FAD2697821B930BA40BB50BB7FF07C0B095A095909581959F4F5C
:20540000AF4FBF4F2996EEADFFAD299780839183A283B3832D8D3E8D2C5F3F4F3E8F2D8F21
:2054200049A55AA54C5F5F4F5AA749A78AA99BA904969BAB8AAB30CF0E944A3B6B017C019A
:20544000EEA9FFA9608371838283938389288A288B2809F425C220E030E0A9016BA17CA13E
:205460008DA19EA10E94493887FD24C02796FFAD2797FF2361F0A70196016BA17CA18DA104
:205480009EA10E94AB3A6BA37CA38DA39EA320E030E040E85FE36BA17CA18DA19EA10E94F6
:2054A000493887FF0FC01BA21CA220E82DA33FE33EA308C049E94BA356E75CA386E98DA3FD
:2054C0009EE79EA3A701960160E070E080E89FE30E94533869A77AA78BA79CA7DE015996AC
:2054E000BA8FA98FC12CD12C760129E2229DC001239D900D1124FC01EE5DFE4FFC8FEB8F13
:20550000AFA1B8A58D909D90AD90BC9020E030E0A901C501B4010E944938882309F47DC0CE
:20552000A501940169A57AA58BA59CA50E94AB3A2B013C01EFA1F8A5608371838283938383
:205540009B01AC0160E070E080E89FE30E9453384B015C01E894B7F8AEA5BFA51C962D9160
:205560003D914D915C911F97C501B4010E94AB3A6D8F7F8F8C012BA13CA14DA15EA10E940B
:205580006B3A181634F0BD8DBBA3EF8DECA30DA31EA3AB8DBC8DBC91BD8FEB8DFC8DF18163
:2055A000FF8FAB8DBC8D12960C91129713961C91EEA5FFA5208D318D428D538DC501B401CC
:2055C0000E94AB3A5B014C019B01AC016D8D7F8DC8010E94493887FD03C0AD8EBF8E84010C
:2055E0008D8D9F8DD801EB8DFC8D80839183A283B383A8A9B9A91C962D913D914D915C915D
:205600001F97C301B2010E94AB3A9B01AC01C701B6010E9453376B017C01EFA1F8A5349602
:20562000F8A7EFA328A939A92C5F3F4F39AB28AB4EA55FA54C5F5F4F5FA74EA7898D9A8D2E
:205640008E179F0709F05CCF8091E3039DA598130DC089E2829DF001839DF00D1124EF5F0F
:20566000FE4F118A128A138A148A12C024EA30E74DE75FE3C701B6010E946B3A18166CF4AA
:2056800089E2829DF001839DF00D1124EF5FFE4F118E128E138E148E66C024EA30E74DE7A1
:2056A0005FEBC701B6010E946B3A181644F084EAC82E80E7D82E8DE7E82E8FEBF82EA701D5
:2056C000960160E070E080E89FE30E94533720E030E040E05FE30E94AB3A0E944A3B6B0101
:2056E0007C0189E2829DF001839DF00D1124EF5FFE4F20911A0630911B0640911C0650913E
:205700001D0661A172A183A194A10E94AB3AA70196010E94AB3A4B015C01A701960160E083
:2057200070E080E89FE30E9453379B01AC01C501B4010E9453386B017C0120E030E0A9016F
:205740000E94493887FF03C0C12CD12C760189E2829DF001839DF00D1124EF5FFE4FC18EC5
:20576000D28EE38EF48E2BA13CA14DA15EA16BA17CA18DA19EA10E94AB3A7B018C0189E2AF
:20578000829DF001839DF00D1124EF5FFE4FC701D801858F968FA78FB0A3A18CB28CC38CEF
:2057A000D48C609091057090920580909305909094059301A401B701C8010E94493887FDAA
:2057C00005C0B62DA72DF82DE92D04C0BE2DAF2DF02FE12F9501A6016B2F7A2F8F2F9E2F4D
:2057E0000E946B3A18166CF09301A401B701C8010E94493887FD03C05301640102C05701E1
:20580000680189E2829DF001839DF00D1124EF5FFE4FC501D601858B968BA78BB08F8CE00C
:20582000FE013D96A5E8B5E001900D928A95E1F7C701D8018093910590939205A09393057E
:20584000B09394058CE0FE013196A9E7B5E001900D928A95E1F7809178058093E4038F5F78
:20586000823109F480E080937805C85BDF4F0FB6F894DEBF0FBECDBFDF91CF911F910F91D0
:20588000FF90EF90DF90CF90BF90AF909F908F907F906F905F904F903F902F900C94E6263A
:2058A000C85BDF4F0FB6F894DEBF0FBECDBFDF91CF911F910F91FF90EF90DF90CF90BF9005
:2058C000AF909F908F907F906F905F904F903F902F900895009741F0EFE9FFE03197F1F705
:2058E00000C000000197F6CF08958091360684FD27C09FB7F89480913606806180933606DA
:205900009FBF8FE08093B3000E949F0780913406982F9C7021F490913506913089F49FB789
:20592000843029F4F89480913706806204C0F894809137068860809337069FBF0C94721C78
:2059400008958F929F92AF92BF92CF92DF92EF92FF920F931F93CF93DF937C016B01DC01F4
:20596000CC91D0E0FE01EB56FA4F80818D3229F4EF012296818101E009C08B3219F0CA567A
:20598000DA4F03C0EF012296818100E0912CF0E010E020E030E0A9015E01E0EDE80FEA301D
:2059A000D0F4FF5FF93098F491101150A5E0B0E00E94073CDC01CB01880F991FAA1FBB1F79
:2059C0009C01AD012E0F311D411D511D0AC0911008C01F5F06C0EE3F41F4911006C0992428
:2059E00093942196D5018C91D7CFFF2309F44FC0CA01B9010E94FB384B015C0120E030E0EF
:205A0000A9010E944938882349F11F3F64F42AE037ED43E25CE3C501B4010E94AB3A4B013E
:205A20005C011E5FF2CF1F3F59F42DEC3CEC4CEC5DE3C501B4010E94AB3A4B015C010EC0EE
:205A4000112361F020E030E040E251E4C501B4010E94AB3A4B015C011150F2CF002351F029
:205A6000B7FAB094B7F8B094F60180829182A282B38206C0D6018D929D92AD92BC921397B7
:205A8000C559D540C150F701C08381E001C080E0DF91CF911F910F91FF90EF90DF90CF9009
:205AA000BF90AF909F908F900895CF93DF93CDB7DEB761970FB6F894DEBF0FBECDBF809130
:205AC000C00082608093C0001092C50080E18093C4008091C10080618093C1008091C10059
:205AE00088608093C1008091C10080688093C10080E090E00E945404893009F002C54DE4E8
:205B000050E061E070E085EE95E00E94FC06892B09F4F7C48AB18C618AB9209A8AB1806E7E
:205B20008AB9809181008F7E8093810080918100886080938100809180008C7F80938000B2
:205B4000809180008F708093800080916E00887F80936E0014BC15BC80916E008160809307
:205B60006E0087B1887F87B988B1876088B980916C00876080936C00809168008260809386
:205B8000680080E2E3E3F6E0DF011D928A95E9F781E0809333067894ACE8CA2EA6E0DA2E3E
:205BA000B3E06B2E80913505809334058FE3F60111928A95E9F76FEA76E080E00E941F1F28
:205BC000811103C087E00E94FE20239A259A8FE08093B3003B9A0E949F070E943D043D98C3
:205BE000459A0E94D5260E949D1C0E946A2668E376E083EA96E00E94D21210923306109215
:205C00003606109237061092350682E691E00E945B2680913406813099F48DEE93E00E9477
:205C20005B2687EC93E00E945B268AE793E00E945B2610E000E0E2E0EE2EF4E07F2E21C0C3
:205C4000109234060E945A12F4CFE92FF0E0EC54FB4F80819F5F903809F490E09093340595
:205C60008F3FA9F08A30E1F4E12FF0E0EB56FA4F10820E94DF22F0903306FF20A9F010E02E
:205C800000E090913405809135059813DECF0E94D6220E94DF2280913306882391F382CF20
:205CA0008D3009F004C4E0CF80919505811105C08FEE93E00E945B26E2CF843209F0ECC393
:205CC000F1E0F98B80919605833481F034F4882351F0843209F01AC109C0873439F0883593
:205CE00009F014C103C086E392E0D7C0909197059111C6C3833409F4D3C01CF4843239F083
:205D0000C7C3873479F0883509F4ECC0C1C3809134068871F82E19F078E0F72EB9C30E94DD
:205D20006A21B6C384E392E00E945B2680918C06823091F038F4882361F08130A9F48EE2A7
:205D400092E00CC0833069F0883071F484E292E005C081E392E002C08BE292E00E945B26A5
:205D60000CC088E292E0FACF8FE192E00E945B2680918C0686500E944B268CE192E00E94A0
:205D80005B26809192068A5C0E944B2680919006813049F028F0823051F48DE092E005C09C
:205DA00087E192E002C082E192E00E945B2680918E06811103C088E092E002C083E092E0E4
:205DC0000E945B2680918F06811103C08EEF91E002C089EF91E00E945B2680918D06813094
:205DE00019F484EF91E002C08FEE91E00E945B2680919306813049F028F0823051F483EECB
:205E000091E005C08BEE91E002C087EE91E00E945B2680919506813031F040F0823051F4F2
:205E20008BED91E005C08FED91E002C087ED91E00E945B2680919406882329F0823039F4AF
:205E40008FEC91E002C083ED91E00E945B268CEC91E00E945B2680919E060E944B2689EC47
:205E600091E00E945B2660919A0670919B0680919C0690919D060E94F02586EC91E00E94A8
:205E80005B26609196067091970680919806909199060E94F02582EC91E00E945B26F8C274
:205EA00080913406823069F40E94752C8DEE93E00E945B2684EA93E00E945B268AE793E04C
:205EC000ECCF811129CFE09234068DEE93E00E945B268DEA93E00E945B268AE793E00E942D
:205EE0005B263BC080913406813009F0D1C28DEE93E00E945B2685EB93E00E945B268AE716
:205F000093E00E945B2610923406C2C290913406923008F001CF893409F4B2C034F483329D
:205F200059F0883409F485C04AC18E3409F41EC1823509F4E4C043C1E98A80919705811163
:205F40009FC2B12CBE016F5F7F4F8B2D0E941F1F811105C087E00E94FE20F12C99C28FEBA0
:205F600091E00E945B2626E0B21631F087E0B81208C089EB91E002C08CEB91E00E945B26F3
:205F800004C086E38B0D0E944B2687EB91E00E945B268E010F5F1F4FA12CD8016D917D9106
:205FA0008D919D918D010E94FF25B2E0AB1619F085EB91E002C081EB91E00E945B26A3940B
:205FC000E3E0AE12EACFB394F8E0BF12BBCF8BEA91E00E945B260BEB16E0B12CD8016D9162
:205FE0007D918D919D918D010E94FF25B2E0BB1619F089EA91E002C085EA91E00E945B26DE
:20600000B394E3E0BE12EACF8FE991E00E945B266091C7067091C8068091C9069091CA0683
:206020000E94FF258BE991E00E945B260E9447212FC28091220684FF1BC2709234060E9420
:20604000320481E00E94A50482E00E94A5040E94DF2280913306811108C068E376E083EA5C
:2060600096E00E94D2120E943D048091330681110FC2109234060E94721C0E945A126DCF3E
:20608000E98A8091970581111DC040E550E06EEA73E085E995E00E94FC06892B51F410924F
:2060A000950540E550E065E975E08EEA93E00E9462078BE891E00E945B260E942D1287E801
:2060C00091E0EBCE698A8D3309F0DAC183E0282F30E0F901EB56FA4F9081D901AE56BA4F09
:2060E0009C938F5F90819111F2CF898B40E550E065E975E08EEA93E00E946207C9C1E98A10
:2061000080919705833509F0BBC1698A80919805843509F0B5C1798A809199058D3309F071
:20612000AFC180919B058111ABC1F5E0F98B80919A05843239F08A3239F0833209F0A0C164
:2061400082E003C081E001C08FEF0E944D1F8DEE93E00E945B268EE793E00E945B268AE7DF
:2061600093E00E945B260E94752C92C1E98A80919705811120C010E0812F0E943A12811141
:2061800004C087E00E94FE2011C084E891E00E945B26812F0E944B2682E891E00E945B2682
:2061A0000E942D128FE791E00E945B261F5F123009F46EC1E1CF9111AFCD11E001C010E098
:2061C000BE01635F7F4FCE0141960E94A12C811103C062E0F62E5CC1E98981E08E0F898BFF
:2061E000F0E0EB56FA4F90819D3309F049C1112359F1482F50E0282F30E0D901AB56BA4FF1
:206200009C91241B350BF901EB56FA4F90838F5F9C919111F0CF898B0E94A10781112BC1E3
:206220006D857E858F8598890E948E3B0E94CC3821E5629FC001112440E550E065E975E02E
:206240009D5F0E94620789CEBE016F5F7F4FCE0141960E94A12C882309F4BBCFE989F0E0FC
:20626000EB56FA4F808181110BC12D843E844F84588820E030E04FE753E4C201B1010E947B
:206280006B3A18160CF4FCC089809A80AB80BC80C201B1010E94CC38062F20E030E0A901DB
:2062A000C501B4010E94493887FDE7C0043608F443C0ECE9E00F80E0E330A8F50E2F10E0DB
:2062C000000F111F000F111F823079F0F801833019F1813019F0EB51FA4F02C0EF50FA4FE6
:2062E00080829182A282B382C0C003501A4F20E030E040E752E4C501B4010E94AB3A20E085
:2063000030E040E752E40E94AB3AD8016D937D938D939C931397A9C0E75FF94FB7FAB094BB
:20632000B7F8B094DDCF8F5FEA3008F4A9C0843009F4A6C0EA50C0CFC501B4010E948E3B8B
:206340000E94CC3810E00C31110508F099C0F801EC5CFF4F0C94013C633008F494C06093C1
:20636000150683C06093180680C06093160602C0609317060E94411C78C080912206662394
:2063800011F084604CC08B7F4AC080912206662311F0806444C08F7B42C08091220666237F
:2063A00011F080683CC08F773AC0609319065DC080921A0690921B06A0921C06B0921D069B
:2063C00054C080921E0690921F06A0922006B09221064BC080912206662311F081601FC0DD
:2063E0008E7F1DC080912206662321F084FF4EC0806215C08F7D13C080912206662311F0F6
:20640000886001C0877F809322060E943D042DC080912206662311F0806101C08F7C80933F
:20642000220623C06093230620C08092240690922506A0922606B092270617C080922806E8
:2064400090922906A0922A06B0922B060EC070E070932D0660932C0608C080922E0690926D
:206460002F06A0923006B09231060E94401F10C045E0F42E0DC0F82E0BC034E0F32E08C033
:2064800023E0F22E05C096E0F92E02C08AE0F82E8F2D0E94CE22F3CB80913406813021F408
:2064A00089E00E94FE20EBCB0E94A107F2CF002331F0893209F0E5CB013009F5E1CB8132BC
:2064C00008F4DFCB8F3209F4DCCB8832B1F08B33B1F01F3428F08BE00E94FE2010E0D1CBD5
:2064E000212F30E01F5F9FE9980FF901EB56FA4F9A3108F480528083C4CB01E0C2CB02E090
:20650000C0CB87E00E94FE208FEF0E944D1F0E946A2100CBCF92DF92EF92FF92CF93C82F08
:206520006A017B0180913406823009F448C00E94D6220E94E532C11104C08FE08093B30054
:206540003EC0C13011F42D9801C02D9A83E88093B0008091B10087608093B10020E030E04F
:20656000A901C701B6010E94493887FD11C020E030E044EB52E4C701B6010E946B3A181611
:2065800054F4C12CD12C84EBE82E82E4F82E03C0C12CD12C760127E13CE641E45EE3C7013C
:2065A000B6010E94AB3A20E030E040E751E40E9454370E9438390E94CC386093B300CF9145
:2065C000FF90EF90DF90CF900895CF930E94D622C9E20E94DF2280913306811111C080913A
:2065E000E3039091E403981739F0C89FC00111248F5F9E4F892B69F780913406883049F34A
:20660000CF9108953F924F925F926F927F928F929F92AF92BF92CF92DF92EF92FF920F935E
:206620001F93CF93DF934C012A013B01322E8091220685FF32C0E40109E016E054018CE08C
:20664000A80EB11CC990D990E990F99020E030E0A901C701B6010E946B3A181664F0F801F8
:2066600021913191419151918F01C701B6010E94493887FF4AC0809134068830C9F59FB719
:20668000F894809136068860809336069FBF0E94DF2280913306882339F1809134068230CD
:2066A000E1F10E94DF2280913306811136C09091E30380917805981769F1232DB301A2014E
:2066C000C401DF91CF911F910F91FF90EF90DF90CF90BF90AF909F908F907F906F905F9020
:2066E0004F903F900C943328809134068111CFCF0E94752C9FB7F89480913706856080930B
:2067000037069FBF0E94DF22C8CFCA15DB0509F099CFC3CF0E94D622C4CFDF91CF911F9145
:206720000F91FF90EF90DF90CF90BF90AF909F908F907F906F905F904F903F900895CF9357
:20674000209180063091810640918206509183066091A3067091A4068091A5069091A60629
:206760000E944938811128C0209184063091850640918606509187066091A7067091A806DD
:206780008091A9069091AA060E944938811114C0C1E0209188063091890640918A0650916D
:2067A0008B066091AB067091AC068091AD069091AE060E9449388111C0E08C2FCF9108954D
:2067C000CF92DF92EF92FF920F93CF93DF9330913406323009F482C0D22FC42F6B017C01E6
:2067E0000E94E53210925206109232068091220687FD03C080E280933206DD2331F090919D
:20680000320680E289278093320686B1807290913206891751F09FB7F8948091370680616F
:20682000809337069FBF0E94DF2280913306811155C02C2FB701A60180E896E00E940233A7
:2068400081E0809345069FB7F894809136068260809336069FBF0E94DF228091330681113C
:206860003DC0809134068111F6CF809145068130A9F4002351F08CE0E8E3F6E0A6E4B6E03E
:2068800001900D928A95E1F70CC09FB7F894809137068061809337069FBF03C081E080930F
:2068A0005206109245060E94DF2280913306811115C00E949D1C0E94D5260E946A2668E3CA
:2068C00076E080E896E00E94D212DF91CF910F91FF90EF90DF90CF900C944721DF91CF91DA
:2068E0000F91FF90EF90DF90CF9008952F923F924F925F926F927F928F929F92AF92BF9225
:20690000CF92DF92EF92FF920F931F93CF93DF93CDB7DEB7AF970FB6F894DEBF0FBECDBFC5
:2069200069877A878B879C872B8B3C8B4D8B5E8B0F8BAD82898A24E0E29E80011124C80114
